S01200006368616C6C656E6765732E73726563FC
S11300000C942A000C943C000C943C000C943C008E
S11300100C943C000C943C000C943C000C943C006C
S11300200C943C000C943C000C948F020C943C0007
S11300300C943C000C943C000C943C000C943C004C
S11300400C943C000C943C000C943C000C943C003C
S11300500C943C0011241FBECFE5D8E0DEBFCDBF19
S113006020E0A0E6B0E001C01D92A136B207E1F79E
S11300700E94FC010C94AD020C940000CF93DF931A
S113008000D01F92CDB7DEB78A836B838A81883014
S113009070F58A8189838B818823A1F08AE390E0BB
S11300A02AE330E0F90160812981422F50E021E008
S11300B030E002C0220F331F4A95E2F7262BFC01E1
S11300C02083B4C08AE390E02AE330E0F901608140
S11300D02981422F50E021E030E002C0220F331F7B
S11300E04A95E2F720952623FC0120839FC08A814C
S11300F0883090F18A81803178F58A8188508983AB
S11301008B818823A1F087E390E027E330E0F901B5
S113011060812981422F50E021E030E002C0220FAB
S1130120331F4A95E2F7262BFC0120837FC087E327
S113013090E027E330E0F90160812981422F50E00B
S113014021E030E002C0220F331F4A95E2F72095E8
S11301502623FC0120836AC08A81803190F18A8140
S1130160883178F58A81805189838B818823A1F035
S113017084E390E024E330E0F90160812981422F97
S113018050E021E030E002C0220F331F4A95E2F72D
S1130190262BFC0120834AC084E390E024E330E072
S11301A0F90160812981422F50E021E030E002C052
S11301B0220F331F4A95E2F720952623FC01208362
S11301C035C08A81883190F18A81803278F58A81BC
S11301D0885189838B818823A1F081E390E021E316
S11301E030E0F90160812981422F50E021E030E0C4
S11301F002C0220F331F4A95E2F7262BFC0120830D
S113020015C081E390E021E330E0F90160812981A8
S1130210422F50E021E030E002C0220F331F4A9504
S1130220E2F720952623FC01208300C000000F90F4
S11302300F900F90DF91CF910895CF93DF9300D06B
S11302401F92CDB7DEB78A836B838A81883070F5BD
S11302508A8189838B818823A1F08BE390E02BE34F
S113026030E0F90160812981422F50E021E030E043
S113027002C0220F331F4A95E2F7262BFC0120838C
S1130280B4C08BE390E02BE330E0F9016081298175
S1130290422F50E021E030E002C0220F331F4A9584
S11302A0E2F720952623FC0120839FC08A818830B1
S11302B090F18A81803178F58A81885089838B8195
S11302C08823A1F088E390E028E330E0F90160811D
S11302D02981422F50E021E030E002C0220F331F79
S11302E04A95E2F7262BFC0120837FC088E390E047
S11302F028E330E0F90160812981422F50E021E0B8
S113030030E002C0220F331F4A95E2F720952623DE
S1130310FC0120836AC08A81803190F18A8188310E
S113032078F58A81805189838B818823A1F085E3C4
S113033090E025E330E0F90160812981422F50E00B
S113034021E030E002C0220F331F4A95E2F7262B4A
S1130350FC0120834AC085E390E025E330E0F90105
S113036060812981422F50E021E030E002C0220F59
S1130370331F4A95E2F720952623FC01208335C0DC
S11303808A81883190F18A81803278F58A81885116
S113039089838B818823A1F082E390E022E330E01B
S11303A0F90160812981422F50E021E030E002C050
S11303B0220F331F4A95E2F7262BFC01208315C038
S11303C082E390E022E330E0F90160812981422F49
S11303D050E021E030E002C0220F331F4A95E2F7DB
S11303E020952623FC01208300C000000F900F906D
S11303F00F90DF91CF910895CF93DF93CDB7DEB700
S113040061E08AE10E941D0160E08BE10E941D0110
S113041061E08EE10E941D0160E08FE10E941D01F8
S113042084E10E941402FFCFCF93DF931F92CDB7D4
S1130430DEB7898387E490E027E1FC01208386E42A
S113044090E020E7FC01208361E070E08AE190E025
S11304500E943E0061E070E08BE190E00E943E006B
S113046061E070E08CE190E00E943E0061E070E0A9
S11304708EE190E00E943E0061E070E08FE190E048
S11304800E943E0061E070E08DE190E00E943E0039
S11304904AE450E08981682F70E021E737E1629FE8
S11304A0C001639F900D729F900D112496958795BE
S11304B0969587959C01ABE7B4E10E949E029695C0
S11304C08795FA0180834BE450E08981682F70E0BE
S11304D021E737E1629FC001639F900D729F900DE9
S11304E0112496958795969587959C01ABE7B4E181
S11304F00E949E0296958795892F9927FA018083F9
S11305008FE490E022EAFC0120838EE490E02AE16B
S1130510FC01208300000F90DF91CF910895CF93C9
S1130520DF93CDB7DEB7809160008F5F809360006A
S1130530809160000000DF91CF910895A29FB001E7
S1130540B39FC001A39F700D811D1124911DB29F03
S1110550700D811D1124911D0895F894FFCFA4
S9030000FC
