S01200006368616C6C656E6765732E73726563FC
S11300000C942A000C9434000C9434000C943400A6
S11300100C9434000C9434000C9434000C9434008C
S11300200C9434000C9434000C9434000C9434007C
S11300300C9434000C9434000C9434000C9434006C
S11300400C9434000C9434000C9434000C9434005C
S11300500C94340011241FBECFE5D8E0DEBFCDBF21
S11300600E9474090C940E0B0C940000CF93DF9340
S113007000D01F92CDB7DEB78A836B838A81883024
S113008070F58A8189838B818823A1F08AE390E0CB
S11300902AE330E0F90160812981422F50E021E018
S11300A030E002C0220F331F4A95E2F7262BFC01F1
S11300B02083B4C08AE390E02AE330E0F901608150
S11300C02981422F50E021E030E002C0220F331F8B
S11300D04A95E2F720952623FC0120839FC08A815C
S11300E0883090F18A81803178F58A8188508983BB
S11300F08B818823A1F087E390E027E330E0F901C6
S113010060812981422F50E021E030E002C0220FBB
S1130110331F4A95E2F7262BFC0120837FC087E337
S113012090E027E330E0F90160812981422F50E01B
S113013021E030E002C0220F331F4A95E2F72095F8
S11301402623FC0120836AC08A81803190F18A8150
S1130150883178F58A81805189838B818823A1F045
S113016084E390E024E330E0F90160812981422FA7
S113017050E021E030E002C0220F331F4A95E2F73D
S1130180262BFC0120834AC084E390E024E330E082
S1130190F90160812981422F50E021E030E002C062
S11301A0220F331F4A95E2F720952623FC01208372
S11301B035C08A81883190F18A81803278F58A81CC
S11301C0885189838B818823A1F081E390E021E326
S11301D030E0F90160812981422F50E021E030E0D4
S11301E002C0220F331F4A95E2F7262BFC0120831D
S11301F015C081E390E021E330E0F90160812981B9
S1130200422F50E021E030E002C0220F331F4A9514
S1130210E2F720952623FC01208300C000000F9004
S11302200F900F90DF91CF910895CF93DF9300D07B
S11302301F92CDB7DEB78A836B838A81883070F5CD
S11302408A8189838B818823A1F08BE390E02BE35F
S113025030E0F90160812981422F50E021E030E053
S113026002C0220F331F4A95E2F7262BFC0120839C
S1130270B4C08BE390E02BE330E0F9016081298185
S1130280422F50E021E030E002C0220F331F4A9594
S1130290E2F720952623FC0120839FC08A818830C1
S11302A090F18A81803178F58A81885089838B81A5
S11302B08823A1F088E390E028E330E0F90160812D
S11302C02981422F50E021E030E002C0220F331F89
S11302D04A95E2F7262BFC0120837FC088E390E057
S11302E028E330E0F90160812981422F50E021E0C8
S11302F030E002C0220F331F4A95E2F720952623EF
S1130300FC0120836AC08A81803190F18A8188311E
S113031078F58A81805189838B818823A1F085E3D4
S113032090E025E330E0F90160812981422F50E01B
S113033021E030E002C0220F331F4A95E2F7262B5A
S1130340FC0120834AC085E390E025E330E0F90115
S113035060812981422F50E021E030E002C0220F69
S1130360331F4A95E2F720952623FC01208335C0EC
S11303708A81883190F18A81803278F58A81885126
S113038089838B818823A1F082E390E022E330E02B
S1130390F90160812981422F50E021E030E002C060
S11303A0220F331F4A95E2F7262BFC01208315C048
S11303B082E390E022E330E0F90160812981422F59
S11303C050E021E030E002C0220F331F4A95E2F7EB
S11303D020952623FC01208300C000000F900F907D
S11303E00F90DF91CF9108950F931F93CF93DF93D5
S11303F0CDB7DEB7C754D1090FB6F894DEBF0FBE30
S1130400CDBF9E01295B3F4FF901808380E090E0DE
S1130410A0E0B0E489839A83AB83BC8320E030E01E
S11304204AEF54E469817A818B819C810E94790A24
S1130430DC01CB019E01235C3F4FF9018083918352
S1130440A283B38320E030E040E85FE3CE01CD96A1
S1130450FC0160817181828193810E94F309882368
S11304604CF4CE018F5B9F4F21E030E0FC013183DF
S1130470208367C020E03FEF4FE757E4CE01CD96DD
S1130480FC0160817181828193810E94740A181633
S11304900CF046C020E030E040E251E469817A810A
S11304A08B819C810E94790ADC01CB018E010F5B58
S11304B01F4FBC01CD010E94F809DC01CB01F801FA
S11304C09183808324C0CE018D5B9F4F28EC30E064
S11304D0FC0131832083CE018D5B9F4FFC01808121
S11304E091810197F1F79E012D5B3F4FF9019183B3
S11304F08083CE018F5B9F4F9E012F5B3F4FF9019D
S11305002081318121503109FC0131832083CE01C6
S11305108F5B9F4FFC0180819181892BA1F62BC0B9
S11305208E010F5B1F4FCE01CD96FC01608171815E
S1130530828193810E94F809DC01CB01F801918347
S11305408083CE018B5B9F4F9E012F5B3F4FF90150
S113055020813181FC0131832083CE018B5B9F4F4D
S1130560FC01808191810197F1F79E012B5B3F4F44
S1130570F9019183808360E081E00E94150160E0CD
S113058082E00E941501CE01895B9F4FFC018081AE
S113059082958F708170682F84E00E941501CE01CE
S11305A0895B9F4FFC01808182958695877081705D
S11305B0682F85E00E941501CE01895B9F4FFC01E5
S11305C0808182958695869583708170682F86E0F8
S11305D00E941501CE01895B9F4FFC018081881F19
S11305E08827881F682F87E00E94150161E083E057
S11305F00E94150180E090E0A0E0B0E48D839E832A
S1130600AF83B88720E030E04AEF54E46D817E8107
S11306108F8198850E94790ADC01CB018BAB9CAB5E
S1130620ADABBEAB20E030E040E85FE36BA97CA952
S11306308DA99EA90E94F30988232CF481E090E0FF
S113064098AF8FAB3FC020E03FEF4FE757E46BA973
S11306507CA98DA99EA90E94740A18164CF520E065
S113066030E040E251E46D817E818F8198850E9463
S1130670790ADC01CB01BC01CD010E94F809DC013F
S1130680CB0198AF8FAB0FC088EC90E09AAF89AFE5
S113069089AD9AAD0197F1F79AAF89AF8FA998AD5B
S11306A0019798AF8FAB8FA998AD892B69F714C0C8
S11306B06BA97CA98DA99EA90E94F809DC01CB0134
S11306C098AF8FAB8FA998AD9CAF8BAF8BAD9CAD22
S11306D00197F1F79CAF8BAF60E083E00E941501B6
S11306E080E090E0A0E0B0E489879A87AB87BC877C
S11306F020E030E04AEF54E469857A858B859C8557
S11307000E94790ADC01CB0189A79AA7ABA7BCA7F1
S113071020E030E040E85FE369A57AA58BA59CA5BD
S11307200E94F30988232CF481E090E09EA78DA712
S11307303FC020E03FEF4FE757E469A57AA58BA5BA
S11307409CA50E94740A18164CF520E030E040E2A3
S113075051E469857A858B859C850E94790ADC0140
S1130760CB01BC01CD010E94F809DC01CB019EA79D
S11307708DA70FC088EC90E098AB8FA78FA598A9A0
S11307800197F1F798AB8FA78DA59EA501979EA71A
S11307908DA78DA59EA5892B69F714C069A57AA597
S11307A08BA59CA50E94F809DC01CB019EA78DA70F
S11307B08DA59EA59AAB89AB89A99AA90197F1F752
S11307C09AAB89ABCE01895B9F4FFC01808181701C
S11307D0682F84E00E941501CE01895B9F4FFC01C4
S11307E0808186958170682F85E00E941501CE0175
S11307F0895B9F4FFC018081869586958170682F67
S113080086E00E941501CE01895B9F4FFC01808127
S11308108695869586958170682F87E00E941501DC
S113082061E083E00E94150180E090E0A0E0B0E484
S11308308D879E87AF87B88B20E030E04AEF54E481
S11308406D857E858F8598890E94790ADC01CB01AC
S11308508F8F98A3A9A3BAA320E030E040E85FE318
S11308606F8D78A189A19AA10E94F30988232CF4A1
S113087081E090E09CA38BA33FC020E03FEF4FE7D3
S113088057E46F8D78A189A19AA10E94740A181661
S11308904CF520E030E040E251E46D857E858F85A3
S11308A098890E94790ADC01CB01BC01CD010E9428
S11308B0F809DC01CB019CA38BA30FC088EC90E06A
S11308C09EA38DA38DA19EA10197F1F79EA38DA355
S11308D08BA19CA101979CA38BA38BA19CA1892B89
S11308E069F714C06F8D78A189A19AA10E94F809B3
S11308F0DC01CB019CA38BA38BA19CA198A78FA304
S11309008FA198A50197F1F798A78FA360E083E0E2
S11309100E94150180E090E0A0E0B0E4898B9A8BFE
S1130920AB8BBC8B20E030E04AEF54E469897A89D0
S11309308B899C890E94790ADC01CB018D8B9E8B6B
S1130940AF8BB88F20E030E040E85FE36D897E89AB
S11309508F89988D0E94F30988232CF481E090E01C
S11309609A8F898F3FC020E03FEF4FE757E46D89AE
S11309707E898F89988D0E94740A18164CF520E0A0
S113098030E040E251E469897A898B899C890E942C
S1130990790ADC01CB01BC01CD010E94F809DC011C
S11309A0CB019A8F898F0FC088EC90E09C8F8B8F3E
S11309B08B8D9C8D0197F1F79C8F8B8F898D9A8DF0
S11309C001979A8F898F898D9A8D892B69F714C025
S11309D06D897E898F89988D0E94F809DC01CB018D
S11309E09A8F898F898D9A8D9E8F8D8F8D8D9E8DF7
S11309F00197F1F79E8F8D8F0000C95BDF4F0FB613
S1130A00F894DEBF0FBECDBFDF91CF911F910F9140
S1130A1008950F931F93CF93DF93CDB7DEB7C256DC
S1130A20D1090FB6F894DEBF0FBECDBF61E081E0FF
S1130A300E94360061E082E00E94360061E083E0BB
S1130A400E94360061E084E00E94360061E085E0A7
S1130A500E94360061E086E00E94360061E087E093
S1130A600E94360080E090E0A0E7B1E489839A8395
S1130A70AB83BC838E01075A1F4F20E030E04AEF5E
S1130A8054E469817A818B819C810E94790ADC011A
S1130A90CB01F80180839183A283B383CE01875A6B
S1130AA09F4F20E030E040E85FE3FC01608171810A
S1130AB0828193810E94F30988234CF4CE01835AE6
S1130AC09F4F21E030E0FC013183208369C0CE01D7
S1130AD0875A9F4F20E03FEF4FE757E4FC016081C6
S1130AE07181828193810E94740A18160CF046C0A9
S1130AF020E030E040E251E469817A818B819C817D
S1130B000E94790ADC01CB018E01035A1F4FBC01FC
S1130B10CD010E94F809DC01CB01F80191838083A7
S1130B2024C0CE01815A9F4F28EC30E0FC01318370
S1130B302083CE01815A9F4FFC01808191810197CE
S1130B40F1F79E01215A3F4FF90191838083CE0131
S1130B50835A9F4F9E01235A3F4FF90120813181CF
S1130B6021503109FC0131832083CE01835A9F4FE8
S1130B70FC0180819181892BA1F62CC08E01035A3E
S1130B801F4FCE01875A9F4FFC0160817181828182
S1130B9093810E94F809DC01CB01F80191838083E1
S1130BA0CE018F599F4F9E01235A3F4FF901208157
S1130BB03181FC0131832083CE018F599F4FFC0189
S1130BC0808191810197F1F79E012F593F4FF901DF
S1130BD09183808383E30E94F40180E090E0A0E8A5
S1130BE0BFE38D839E83AF83B8878E01015B1F4F64
S1130BF020E030E04AEF54E46D817E818F81988556
S1130C000E94790ADC01CB01F80180839183A283DD
S1130C10B383CE01815B9F4F20E030E040E85FE387
S1130C20FC0160817181828193810E94F309882390
S1130C304CF4CE018D5A9F4F21E030E0FC0131830A
S1130C40208369C0CE01815B9F4F20E03FEF4FE7D7
S1130C5057E4FC0160817181828193810E94740A4E
S1130C6018160CF046C020E030E040E251E46D81FB
S1130C707E818F8198850E94790ADC01CB018E01E7
S1130C800D5A1F4FBC01CD010E94F809DC01CB01B4
S1130C90F8019183808324C0CE018B5A9F4F28ECA6
S1130CA030E0FC0131832083CE018B5A9F4FFC013D
S1130CB0808191810197F1F79E012B5A3F4FF901F1
S1130CC091838083CE018D5A9F4F9E012D5A3F4FB1
S1130CD0F9012081318121503109FC0131832083C4
S1130CE0CE018D5A9F4FFC0180819181892BA1F601
S1130CF02CC08E010D5A1F4FCE01815B9F4FFC010A
S1130D0060817181828193810E94F809DC01CB01A9
S1130D10F80191838083CE01895A9F4F9E012D5AF9
S1130D203F4FF90120813181FC0131832083CE01C1
S1130D30895A9F4FFC01808191810197F1F79E01AF
S1130D40295A3F4FF9019183808382E30E94F40181
S1130D5080E090E0A0E8BFE389879A87AB87BC87EF
S1130D608E010B5B1F4F20E030E04AEF54E46985AD
S1130D707A858B859C850E94790ADC01CB01F80178
S1130D8080839183A283B383CE018B5B9F4F20E04A
S1130D9030E040E85FE3FC016081718182819381EE
S1130DA00E94F30988234CF4CE01875B9F4F21E016
S1130DB030E0FC013183208369C0CE018B5B9F4FFF
S1130DC020E03FEF4FE757E4FC01608171818281AD
S1130DD093810E94740A18160CF046C020E030E09B
S1130DE040E251E469857A858B859C850E94790A65
S1130DF0DC01CB018E01075B1F4FBC01CD010E94BA
S1130E00F809DC01CB01F8019183808324C0CE0171
S1130E10855B9F4F28EC30E0FC0131832083CE01B9
S1130E20855B9F4FFC01808191810197F1F79E01C1
S1130E30255B3F4FF90191838083CE01875B9F4FF0
S1130E409E01275B3F4FF9012081318121503109F7
S1130E50FC0131832083CE01875B9F4FFC0180819D
S1130E609181892BA1F62CC08E01075B1F4FCE0107
S1130E708B5B9F4FFC0160817181828193810E9411
S1130E80F809DC01CB01F80191838083CE01835BF7
S1130E909F4F9E01275B3F4FF90120813181FC0167
S1130EA031832083CE01835B9F4FFC01808191813C
S1130EB00197F1F79E01235B3F4FF90191838083F2
S1130EC088E20E94F40180E090E0A0E8BFE38D870F
S1130ED09E87AF87B88B20E030E04AEF54E46D85FD
S1130EE07E858F8598890E94790ADC01CB018BAFBE
S1130EF09CAFADAFBEAF20E030E040E85FE36BAD48
S1130F007CAD8DAD9EAD0E94F309882344F421E0AD
S1130F1030E0CE01CF96FC01318320835FC020E016
S1130F203FEF4FE757E46BAD7CAD8DAD9EAD0E94B6
S1130F30740A18160CF044C020E030E040E251E49A
S1130F406D857E858F8598890E94790ADC01CB01A5
S1130F50BC01CD010E94F809DC01CB019E01215C9A
S1130F603F4FF9019183808323C0CE018F5B9F4F54
S1130F7028EC30E0FC0131832083CE018F5B9F4F4E
S1130F80FC01808191810197F1F79E012F5B3F4F16
S1130F90F90191838083CE01CF96FC0180819181F8
S1130FA09C0121503109CE01CF96FC01318320836D
S1130FB0CE01CF96FC0180819181892BB1F628C0A6
S1130FC06BAD7CAD8DAD9EAD0E94F809DC01CB010B
S1130FD09E01215C3F4FF90191838083CE018D5B9B
S1130FE09F4F9E01215C3F4FF90120813181FC011B
S1130FF031832083CE018D5B9F4FFC0180819181E1
S11310000197F1F79E012D5B3F4FF9019183808396
S11310108EE00E94F40180E090E0A0E8BFE3898BB9
S11310209A8BAB8BBC8B20E030E04AEF54E46989A7
S11310307A898B899C890E94790ADC01CB0189AB6E
S11310409AABABABBCAB20E030E040E85FE369A90E
S11310507AA98BA99CA90E94F30988232CF481E026
S113106090E09EAB8DAB3FC020E03FEF4FE757E4ED
S113107069A97AA98BA99CA90E94740A18164CF52F
S113108020E030E040E251E469897A898B899C89C7
S11310900E94790ADC01CB01BC01CD010E94F80950
S11310A0DC01CB019EAB8DAB0FC088EC90E098AF18
S11310B08FAB8FA998AD0197F1F798AF8FAB8DA93E
S11310C09EA901979EAB8DAB8DA99EA9892B69F72B
S11310D014C069A97AA98BA99CA90E94F809DC010A
S11310E0CB019EAB8DAB8DA99EA99AAF89AF89AD7B
S11310F09AAD0197F1F79AAF89AF81E00E94F401AC
S113110080E090E0A0E8BFE38D8B9E8BAF8BB88F1F
S113111020E030E04AEF54E46D897E898F89988D10
S11311200E94790ADC01CB018FA398A7A9A7BAA7CB
S113113020E030E040E85FE36FA178A589A59AA597
S11311400E94F30988232CF481E090E09CA78BA7EC
S11311503FC020E03FEF4FE757E46FA178A589A592
S11311609AA50E94740A18164CF520E030E040E27B
S113117051E46D897E898F89988D0E94790ADC01FA
S1131180CB01BC01CD010E94F809DC01CB019CA775
S11311908BA70FC088EC90E09EA78DA78DA59EA578
S11311A00197F1F79EA78DA78BA59CA501979CA7F6
S11311B08BA78BA59CA5892B69F714C06FA178A573
S11311C089A59AA50E94F809DC01CB019CA78BA7ED
S11311D08BA59CA598AB8FA78FA598A90197F1F72C
S11311E098AB8FA786E00E94F40180E090E0A0E233
S11311F0B1E4898F9A8FAB8FBC8F20E030E04AEF47
S113120054E4698D7A8D8B8D9C8D0E94790ADC0162
S1131210CB018D8F9E8FAF8FB8A320E030E040E8E4
S11312205FE36D8D7E8D8F8D98A10E94F3098823D5
S11312302CF481E090E09AA389A33FC020E03FEF23
S11312404FE757E46D8D7E8D8F8D98A10E94740AAF
S113125018164CF520E030E040E251E4698D7A8DB7
S11312608B8D9C8D0E94790ADC01CB01BC01CD01E0
S11312700E94F809DC01CB019AA389A30FC088EC72
S113128090E09CA38BA38BA19CA10197F1F79CA355
S11312908BA389A19AA101979AA389A389A19AA151
S11312A0892B69F714C06D8D7E8D8F8D98A10E9456
S11312B0F809DC01CB019AA389A389A19AA19EA371
S11312C08DA38DA19EA10197F1F79EA38DA300008C
S11312D0CE59DF4F0FB6F894DEBF0FBECDBFDF91FE
S11312E0CF911F910F910895CF93DF93CDB7DEB7C0
S11312F02E970FB6F894DEBF0FBECDBF0E9409052E
S113130080E090E4ACE9B5E489839A83AB83BC8341
S113131020E030E04AE753E469817A818B819C8143
S11313200E94790ADC01CB018D839E83AF83B88749
S113133020E030E040E85FE36D817E818F81988515
S11313400E94F30988232CF481E090E09A8789872E
S11313503FC020E03FEF4FE757E46D817E818F81EE
S113136098850E94740A18164CF520E030E040E29B
S113137051E469817A818B819C810E94790ADC0124
S1131380CB01BC01CD010E94F809DC01CB019A8795
S113139089870FC089E190E09C878B878B859C852A
S11313A00197F1F79C878B8789859A8501979A879E
S11313B0898789859A85892B69F714C06D817E8117
S11313C08F8198850E94F809DC01CB019A8789876F
S11313D089859A859E878D878D859E850197F1F7EE
S11313E09E878D87FFCF0E94270A08F481E0089525
S11313F00E94530A88F09F5798F0B92F9927B75144
S1131400B0F0E1F0660F771F881F991F1AF0BA95A4
S1131410C9F714C0B13091F00E946D0AB1E008958B
S11314200C946D0A672F782F8827B85F39F0B93F7D
S1131430CCF3869577956795B395D9F73EF4909557
S11314408095709561957F4F8F4F9F4F0895990FA9
S11314500008550FAA0BE0E8FEEF16161706E8077A
S1131460F907C0F012161306E407F50798F0621B9B
S1131470730B840B950B39F40A2661F0232B242B70
S1131480252B21F408950A2609F4A140A6958FEF8F
S1131490811D811D089557FD9058440F551F59F023
S11314A05F3F71F04795880F97FB991F61F09F3F4D
S11314B079F087950895121613061406551FF2CF76
S11314C04695F1DF08C0161617061806991FF1CFC6
S11314D086957105610508940895E894BB276627ED
S11314E07727CB0197F908950E94270A08F48FEF14
S11314F008950E948C0A0C94FD0A0E94EF0A38F0A9
S11315000E94F60A20F0952311F00C94E60A0C943C
S1131510EC0A11240C946E0A0E944B0A70F3959FF6
S1131520C1F3950F50E0551F629FF001729FBB27D6
S1131530F00DB11D639FAA27F00DB11DAA1F649F72
S11315406627B00DA11D661F829F2227B00DA11D25
S1131550621F739FB00DA11D621F839FA00D611DAB
S1131560221F749F3327A00D611D231F849F600DCC
S1131570211D822F762F6A2F11249F5750409AF0F5
S1131580F1F088234AF0EE0FFF1FBB1F661F771F81
S1131590881F91505040A9F79E3F510580F00C944C
S11315A0E60A0C946E0A5F3FE4F3983ED4F3869502
S11315B077956795B795F795E7959F5FC1F7FE2BEC
S11315C0880F911D9695879597F9089597F99F67C8
S11315D080E870E060E008959FEF80EC08950024B7
S11315E00A941616170618060906089500240A9484
S11315F012161306140605060895092E0394000C0A
S113160011F4882352F0BB0F40F4BF2B11F460FF98
S113161004C06F5F7F4F8F4F9F4F0895F894FFCFA3
S9030000FC
